{
  "_format": "hh-sol-artifact-1",
  "contractName": "GovernanceToken",
  "sourceName": "src/GovernanceToken.sol",
  "abi": [
    {
      "inputs": [
        {
          "internalType": "string",
          "name": "name",
          "type": "string"
        },
        {
          "internalType": "string",
          "name": "symbol",
          "type": "string"
        }
      ],
      "stateMutability": "nonpayable",
      "type": "constructor"
    },
    {
      "inputs": [],
      "name": "InvalidShortString",
      "type": "error"
    },
    {
      "inputs": [
        {
          "internalType": "string",
          "name": "str",
          "type": "string"
        }
      ],
      "name": "StringTooLong",
      "type": "error"
    },
    {
      "anonymous": false,
      "inputs": [
        {
          "indexed": true,
          "internalType": "address",
          "name": "owner",
          "type": "address"
        },
        {
          "indexed": true,
          "internalType": "address",
          "name": "spender",
          "type": "address"
        },
        {
          "indexed": false,
          "internalType": "uint256",
          "name": "value",
          "type": "uint256"
        }
      ],
      "name": "Approval",
      "type": "event"
    },
    {
      "anonymous": false,
      "inputs": [
        {
          "indexed": true,
          "internalType": "address",
          "name": "delegator",
          "type": "address"
        },
        {
          "indexed": true,
          "internalType": "address",
          "name": "fromDelegate",
          "type": "address"
        },
        {
          "indexed": true,
          "internalType": "address",
          "name": "toDelegate",
          "type": "address"
        }
      ],
      "name": "DelegateChanged",
      "type": "event"
    },
    {
      "anonymous": false,
      "inputs": [
        {
          "indexed": true,
          "internalType": "address",
          "name": "delegate",
          "type": "address"
        },
        {
          "indexed": false,
          "internalType": "uint256",
          "name": "previousBalance",
          "type": "uint256"
        },
        {
          "indexed": false,
          "internalType": "uint256",
          "name": "newBalance",
          "type": "uint256"
        }
      ],
      "name": "DelegateVotesChanged",
      "type": "event"
    },
    {
      "anonymous": false,
      "inputs": [],
      "name": "EIP712DomainChanged",
      "type": "event"
    },
    {
      "anonymous": false,
      "inputs": [
        {
          "indexed": true,
          "internalType": "address",
          "name": "previousOwner",
          "type": "address"
        },
        {
          "indexed": true,
          "internalType": "address",
          "name": "newOwner",
          "type": "address"
        }
      ],
      "name": "OwnershipTransferred",
      "type": "event"
    },
    {
      "anonymous": false,
      "inputs": [
        {
          "indexed": true,
          "internalType": "address",
          "name": "from",
          "type": "address"
        },
        {
          "indexed": true,
          "internalType": "address",
          "name": "to",
          "type": "address"
        },
        {
          "indexed": false,
          "internalType": "uint256",
          "name": "value",
          "type": "uint256"
        }
      ],
      "name": "Transfer",
      "type": "event"
    },
    {
      "inputs": [],
      "name": "CLOCK_MODE",
      "outputs": [
        {
          "internalType": "string",
          "name": "",
          "type": "string"
        }
      ],
      "stateMutability": "view",
      "type": "function"
    },
    {
      "inputs": [],
      "name": "DOMAIN_SEPARATOR",
      "outputs": [
        {
          "internalType": "bytes32",
          "name": "",
          "type": "bytes32"
        }
      ],
      "stateMutability": "view",
      "type": "function"
    },
    {
      "inputs": [],
      "name": "MAX_SUPPLY",
      "outputs": [
        {
          "internalType": "uint256",
          "name": "",
          "type": "uint256"
        }
      ],
      "stateMutability": "view",
      "type": "function"
    },
    {
      "inputs": [
        {
          "internalType": "address",
          "name": "owner",
          "type": "address"
        },
        {
          "internalType": "address",
          "name": "spender",
          "type": "address"
        }
      ],
      "name": "allowance",
      "outputs": [
        {
          "internalType": "uint256",
          "name": "",
          "type": "uint256"
        }
      ],
      "stateMutability": "view",
      "type": "function"
    },
    {
      "inputs": [
        {
          "internalType": "address",
          "name": "spender",
          "type": "address"
        },
        {
          "internalType": "uint256",
          "name": "amount",
          "type": "uint256"
        }
      ],
      "name": "approve",
      "outputs": [
        {
          "internalType": "bool",
          "name": "",
          "type": "bool"
        }
      ],
      "stateMutability": "nonpayable",
      "type": "function"
    },
    {
      "inputs": [
        {
          "internalType": "address",
          "name": "account",
          "type": "address"
        }
      ],
      "name": "balanceOf",
      "outputs": [
        {
          "internalType": "uint256",
          "name": "",
          "type": "uint256"
        }
      ],
      "stateMutability": "view",
      "type": "function"
    },
    {
      "inputs": [
        {
          "internalType": "address",
          "name": "account",
          "type": "address"
        },
        {
          "internalType": "uint32",
          "name": "pos",
          "type": "uint32"
        }
      ],
      "name": "checkpoints",
      "outputs": [
        {
          "components": [
            {
              "internalType": "uint32",
              "name": "fromBlock",
              "type": "uint32"
            },
            {
              "internalType": "uint224",
              "name": "votes",
              "type": "uint224"
            }
          ],
          "internalType": "struct ERC20Votes.Checkpoint",
          "name": "",
          "type": "tuple"
        }
      ],
      "stateMutability": "view",
      "type": "function"
    },
    {
      "inputs": [],
      "name": "clock",
      "outputs": [
        {
          "internalType": "uint48",
          "name": "",
          "type": "uint48"
        }
      ],
      "stateMutability": "view",
      "type": "function"
    },
    {
      "inputs": [],
      "name": "decimals",
      "outputs": [
        {
          "internalType": "uint8",
          "name": "",
          "type": "uint8"
        }
      ],
      "stateMutability": "view",
      "type": "function"
    },
    {
      "inputs": [
        {
          "internalType": "address",
          "name": "spender",
          "type": "address"
        },
        {
          "internalType": "uint256",
          "name": "subtractedValue",
          "type": "uint256"
        }
      ],
      "name": "decreaseAllowance",
      "outputs": [
        {
          "internalType": "bool",
          "name": "",
          "type": "bool"
        }
      ],
      "stateMutability": "nonpayable",
      "type": "function"
    },
    {
      "inputs": [
        {
          "internalType": "address",
          "name": "delegatee",
          "type": "address"
        }
      ],
      "name": "delegate",
      "outputs": [],
      "stateMutability": "nonpayable",
      "type": "function"
    },
    {
      "inputs": [
        {
          "internalType": "address",
          "name": "delegatee",
          "type": "address"
        },
        {
          "internalType": "uint256",
          "name": "nonce",
          "type": "uint256"
        },
        {
          "internalType": "uint256",
          "name": "expiry",
          "type": "uint256"
        },
        {
          "internalType": "uint8",
          "name": "v",
          "type": "uint8"
        },
        {
          "internalType": "bytes32",
          "name": "r",
          "type": "bytes32"
        },
        {
          "internalType": "bytes32",
          "name": "s",
          "type": "bytes32"
        }
      ],
      "name": "delegateBySig",
      "outputs": [],
      "stateMutability": "nonpayable",
      "type": "function"
    },
    {
      "inputs": [
        {
          "internalType": "address",
          "name": "account",
          "type": "address"
        }
      ],
      "name": "delegates",
      "outputs": [
        {
          "internalType": "address",
          "name": "",
          "type": "address"
        }
      ],
      "stateMutability": "view",
      "type": "function"
    },
    {
      "inputs": [],
      "name": "eip712Domain",
      "outputs": [
        {
          "internalType": "bytes1",
          "name": "fields",
          "type": "bytes1"
        },
        {
          "internalType": "string",
          "name": "name",
          "type": "string"
        },
        {
          "internalType": "string",
          "name": "version",
          "type": "string"
        },
        {
          "internalType": "uint256",
          "name": "chainId",
          "type": "uint256"
        },
        {
          "internalType": "address",
          "name": "verifyingContract",
          "type": "address"
        },
        {
          "internalType": "bytes32",
          "name": "salt",
          "type": "bytes32"
        },
        {
          "internalType": "uint256[]",
          "name": "extensions",
          "type": "uint256[]"
        }
      ],
      "stateMutability": "view",
      "type": "function"
    },
    {
      "inputs": [
        {
          "internalType": "uint256",
          "name": "timepoint",
          "type": "uint256"
        }
      ],
      "name": "getPastTotalSupply",
      "outputs": [
        {
          "internalType": "uint256",
          "name": "",
          "type": "uint256"
        }
      ],
      "stateMutability": "view",
      "type": "function"
    },
    {
      "inputs": [
        {
          "internalType": "address",
          "name": "account",
          "type": "address"
        },
        {
          "internalType": "uint256",
          "name": "timepoint",
          "type": "uint256"
        }
      ],
      "name": "getPastVotes",
      "outputs": [
        {
          "internalType": "uint256",
          "name": "",
          "type": "uint256"
        }
      ],
      "stateMutability": "view",
      "type": "function"
    },
    {
      "inputs": [
        {
          "internalType": "address",
          "name": "account",
          "type": "address"
        }
      ],
      "name": "getVotes",
      "outputs": [
        {
          "internalType": "uint256",
          "name": "",
          "type": "uint256"
        }
      ],
      "stateMutability": "view",
      "type": "function"
    },
    {
      "inputs": [
        {
          "internalType": "address",
          "name": "spender",
          "type": "address"
        },
        {
          "internalType": "uint256",
          "name": "addedValue",
          "type": "uint256"
        }
      ],
      "name": "increaseAllowance",
      "outputs": [
        {
          "internalType": "bool",
          "name": "",
          "type": "bool"
        }
      ],
      "stateMutability": "nonpayable",
      "type": "function"
    },
    {
      "inputs": [
        {
          "internalType": "address",
          "name": "to",
          "type": "address"
        },
        {
          "internalType": "uint256",
          "name": "amount",
          "type": "uint256"
        }
      ],
      "name": "mint",
      "outputs": [],
      "stateMutability": "nonpayable",
      "type": "function"
    },
    {
      "inputs": [],
      "name": "name",
      "outputs": [
        {
          "internalType": "string",
          "name": "",
          "type": "string"
        }
      ],
      "stateMutability": "view",
      "type": "function"
    },
    {
      "inputs": [
        {
          "internalType": "address",
          "name": "owner",
          "type": "address"
        }
      ],
      "name": "nonces",
      "outputs": [
        {
          "internalType": "uint256",
          "name": "",
          "type": "uint256"
        }
      ],
      "stateMutability": "view",
      "type": "function"
    },
    {
      "inputs": [
        {
          "internalType": "address",
          "name": "account",
          "type": "address"
        }
      ],
      "name": "numCheckpoints",
      "outputs": [
        {
          "internalType": "uint32",
          "name": "",
          "type": "uint32"
        }
      ],
      "stateMutability": "view",
      "type": "function"
    },
    {
      "inputs": [],
      "name": "owner",
      "outputs": [
        {
          "internalType": "address",
          "name": "",
          "type": "address"
        }
      ],
      "stateMutability": "view",
      "type": "function"
    },
    {
      "inputs": [
        {
          "internalType": "address",
          "name": "owner",
          "type": "address"
        },
        {
          "internalType": "address",
          "name": "spender",
          "type": "address"
        },
        {
          "internalType": "uint256",
          "name": "value",
          "type": "uint256"
        },
        {
          "internalType": "uint256",
          "name": "deadline",
          "type": "uint256"
        },
        {
          "internalType": "uint8",
          "name": "v",
          "type": "uint8"
        },
        {
          "internalType": "bytes32",
          "name": "r",
          "type": "bytes32"
        },
        {
          "internalType": "bytes32",
          "name": "s",
          "type": "bytes32"
        }
      ],
      "name": "permit",
      "outputs": [],
      "stateMutability": "nonpayable",
      "type": "function"
    },
    {
      "inputs": [],
      "name": "renounceOwnership",
      "outputs": [],
      "stateMutability": "nonpayable",
      "type": "function"
    },
    {
      "inputs": [],
      "name": "symbol",
      "outputs": [
        {
          "internalType": "string",
          "name": "",
          "type": "string"
        }
      ],
      "stateMutability": "view",
      "type": "function"
    },
    {
      "inputs": [],
      "name": "totalSupply",
      "outputs": [
        {
          "internalType": "uint256",
          "name": "",
          "type": "uint256"
        }
      ],
      "stateMutability": "view",
      "type": "function"
    },
    {
      "inputs": [
        {
          "internalType": "address",
          "name": "to",
          "type": "address"
        },
        {
          "internalType": "uint256",
          "name": "amount",
          "type": "uint256"
        }
      ],
      "name": "transfer",
      "outputs": [
        {
          "internalType": "bool",
          "name": "",
          "type": "bool"
        }
      ],
      "stateMutability": "nonpayable",
      "type": "function"
    },
    {
      "inputs": [
        {
          "internalType": "address",
          "name": "from",
          "type": "address"
        },
        {
          "internalType": "address",
          "name": "to",
          "type": "address"
        },
        {
          "internalType": "uint256",
          "name": "amount",
          "type": "uint256"
        }
      ],
      "name": "transferFrom",
      "outputs": [
        {
          "internalType": "bool",
          "name": "",
          "type": "bool"
        }
      ],
      "stateMutability": "nonpayable",
      "type": "function"
    },
    {
      "inputs": [
        {
          "internalType": "address",
          "name": "newOwner",
          "type": "address"
        }
      ],
      "name": "transferOwnership",
      "outputs": [],
      "stateMutability": "nonpayable",
      "type": "function"
    }
  ],
  "bytecode": "0x6101606040523480156200001257600080fd5b5060405162005c5e38038062005c5e833981810160405281019062000038919062000f0c565b81806040518060400160405280600181526020017f310000000000000000000000000000000000000000000000000000000000000081525084848160039081620000839190620011dc565b508060049081620000959190620011dc565b505050620000ae6005836200018d60201b90919060201c565b6101208181525050620000cc6006826200018d60201b90919060201c565b6101408181525050818051906020012060e08181525050808051906020012061010081815250504660a081815250506200010b620001e560201b60201c565b608081815250503073ffffffffffffffffffffffffffffffffffffffff1660c08173ffffffffffffffffffffffffffffffffffffffff1681525050505050620001696200015d6200024260201b60201c565b6200024a60201b60201c565b620001853369152d02c7e14af68000006200031060201b60201c565b50506200186a565b6000602083511015620001b357620001ab836200032660201b60201c565b9050620001df565b82620001c5836200039360201b60201c565b6000019081620001d69190620011dc565b5060ff60001b90505b92915050565b60007f8b73c3c69bb8fe3d512ecc4cf759cc79239f7b179b0ffacaa9a75d522b39400f60e0516101005146306040516020016200022795949392919062001334565b60405160208183030381529060405280519060200120905090565b600033905090565b6000600c60009054906101000a900473ffffffffffffffffffffffffffffffffffffffff16905081600c60006101000a81548173ffffffffffffffffffffffffffffffffffffffff021916908373ffffffffffffffffffffffffffffffffffffffff1602179055508173ffffffffffffffffffffffffffffffffffffffff168173ffffffffffffffffffffffffffffffffffffffff167f8be0079c531659141344cd1fd0a4f28419497f9722a3daafe3b4186f6b6457e060405160405180910390a35050565b6200032282826200039d60201b60201c565b5050565b600080829050601f815111156200037657826040517f305a27a90000000000000000000000000000000000000000000000000000000081526004016200036d9190620013e3565b60405180910390fd5b805181620003849062001439565b60001c1760001b915050919050565b6000819050919050565b620003af82826200045660201b60201c565b620003bf620005c360201b60201c565b7bffffffffffffffffffffffffffffffffffffffffffffffffffffffff16620003ed620005e760201b60201c565b111562000431576040517f08c379a000000000000000000000000000000000000000000000000000000000815260040162000428906200151f565b60405180910390fd5b62000450600b620005f160201b620012ea17836200060960201b60201c565b50505050565b600073ffffffffffffffffffffffffffffffffffffffff168273ffffffffffffffffffffffffffffffffffffffff1603620004c8576040517f08c379a0000000000000000000000000000000000000000000000000000000008152600401620004bf9062001591565b60405180910390fd5b620004dc600083836200091f60201b60201c565b8060026000828254620004f09190620015e2565b92505081905550806000808473ffffffffffffffffffffffffffffffffffffffff1673ffffffffffffffffffffffffffffffffffffffff168152602001908152602001600020600082825401925050819055508173ffffffffffffffffffffffffffffffffffffffff16600073ffffffffffffffffffffffffffffffffffffffff167fddf252ad1be2c89b69c2b068fc378daa952ba7f163c4a11628f55a4df523b3ef83604051620005a391906200161d565b60405180910390a3620005bf600083836200092460201b60201c565b5050565b60007bffffffffffffffffffffffffffffffffffffffffffffffffffffffff905090565b6000600254905090565b60008183620006019190620015e2565b905092915050565b6000806000858054905090506000808214620006d9576200063487600184036200093c60201b60201c565b6040518060400160405290816000820160009054906101000a900463ffffffff1663ffffffff1663ffffffff1681526020016000820160049054906101000a90047bffffffffffffffffffffffffffffffffffffffffffffffffffffffff167bffffffffffffffffffffffffffffffffffffffffffffffffffffffff167bffffffffffffffffffffffffffffffffffffffffffffffffffffffff168152505062000715565b6040518060400160405280600063ffffffff16815260200160007bffffffffffffffffffffffffffffffffffffffffffffffffffffffff168152505b905080602001517bffffffffffffffffffffffffffffffffffffffffffffffffffffffff1693506200074884868860201c565b92506000821180156200077b5750620007666200095160201b60201c565b65ffffffffffff16816000015163ffffffff16145b15620007fe5762000792836200096960201b60201c565b620007a788600185036200093c60201b60201c565b60000160046101000a8154817bffffffffffffffffffffffffffffffffffffffffffffffffffffffff02191690837bffffffffffffffffffffffffffffffffffffffffffffffffffffffff16021790555062000915565b866040518060400160405280620008326200081e6200095160201b60201c565b65ffffffffffff16620009d760201b60201c565b63ffffffff1681526020016200084e866200096960201b60201c565b7bffffffffffffffffffffffffffffffffffffffffffffffffffffffff168152509080600181540180825580915050600190039060005260206000200160009091909190915060008201518160000160006101000a81548163ffffffff021916908363ffffffff16021790555060208201518160000160046101000a8154817bffffffffffffffffffffffffffffffffffffffffffffffffffffffff02191690837bffffffffffffffffffffffffffffffffffffffffffffffffffffffff16021790555050505b5050935093915050565b505050565b6200093783838362000a2d60201b60201c565b505050565b60008260005281602060002001905092915050565b6000620009644362000a7860201b60201c565b905090565b60007bffffffffffffffffffffffffffffffffffffffffffffffffffffffff8016821115620009cf576040517f08c379a0000000000000000000000000000000000000000000000000000000008152600401620009c690620016b0565b60405180910390fd5b819050919050565b600063ffffffff801682111562000a25576040517f08c379a000000000000000000000000000000000000000000000000000000000815260040162000a1c9062001748565b60405180910390fd5b819050919050565b62000a4083838362000ad060201b60201c565b62000a7362000a558462000ad560201b60201c565b62000a668462000ad560201b60201c565b8362000b3e60201b60201c565b505050565b600065ffffffffffff801682111562000ac8576040517f08c379a000000000000000000000000000000000000000000000000000000000815260040162000abf90620017e0565b60405180910390fd5b819050919050565b505050565b6000600960008373ffffffffffffffffffffffffffffffffffffffff1673ffffffffffffffffffffffffffffffffffffffff16815260200190815260200160002060009054906101000a900473ffffffffffffffffffffffffffffffffffffffff169050919050565b8173ffffffffffffffffffffffffffffffffffffffff168373ffffffffffffffffffffffffffffffffffffffff161415801562000b7b5750600081115b1562000d5c57600073ffffffffffffffffffffffffffffffffffffffff168373ffffffffffffffffffffffffffffffffffffffff161462000c6e5760008062000c15600a60008773ffffffffffffffffffffffffffffffffffffffff1673ffffffffffffffffffffffffffffffffffffffff16815260200190815260200160002062000d6160201b6200130017856200060960201b60201c565b915091508473ffffffffffffffffffffffffffffffffffffffff167fdec2bacdd2f05b59de34da9b523dff8be42e5e38e818c82fdb0bae774387a724838360405162000c6392919062001802565b60405180910390a250505b600073ffffffffffffffffffffffffffffffffffffffff168273ffffffffffffffffffffffffffffffffffffffff161462000d5b5760008062000d02600a60008673ffffffffffffffffffffffffffffffffffffffff1673ffffffffffffffffffffffffffffffffffffffff168152602001908152602001600020620005f160201b620012ea17856200060960201b60201c565b915091508373ffffffffffffffffffffffffffffffffffffffff167fdec2bacdd2f05b59de34da9b523dff8be42e5e38e818c82fdb0bae774387a724838360405162000d5092919062001802565b60405180910390a250505b5b505050565b6000818362000d7191906200182f565b905092915050565b6000604051905090565b600080fd5b600080fd5b600080fd5b600080fd5b6000601f19601f8301169050919050565b7f4e487b7100000000000000000000000000000000000000000000000000000000600052604160045260246000fd5b62000de28262000d97565b810181811067ffffffffffffffff8211171562000e045762000e0362000da8565b5b80604052505050565b600062000e1962000d79565b905062000e27828262000dd7565b919050565b600067ffffffffffffffff82111562000e4a5762000e4962000da8565b5b62000e558262000d97565b9050602081019050919050565b60005b8381101562000e8257808201518184015260208101905062000e65565b60008484015250505050565b600062000ea562000e9f8462000e2c565b62000e0d565b90508281526020810184848401111562000ec45762000ec362000d92565b5b62000ed184828562000e62565b509392505050565b600082601f83011262000ef15762000ef062000d8d565b5b815162000f0384826020860162000e8e565b91505092915050565b6000806040838503121562000f265762000f2562000d83565b5b600083015167ffffffffffffffff81111562000f475762000f4662000d88565b5b62000f558582860162000ed9565b925050602083015167ffffffffffffffff81111562000f795762000f7862000d88565b5b62000f878582860162000ed9565b9150509250929050565b600081519050919050565b7f4e487b7100000000000000000000000000000000000000000000000000000000600052602260045260246000fd5b6000600282049050600182168062000fe457607f821691505b60208210810362000ffa5762000ff962000f9c565b5b50919050565b60008190508160005260206000209050919050565b60006020601f8301049050919050565b600082821b905092915050565b600060088302620010647fffffffffffffffffffffffffffffffffffffffffffffffffffffffffffffffff8262001025565b62001070868362001025565b95508019841693508086168417925050509392505050565b6000819050919050565b6000819050919050565b6000620010bd620010b7620010b18462001088565b62001092565b62001088565b9050919050565b6000819050919050565b620010d9836200109c565b620010f1620010e882620010c4565b84845462001032565b825550505050565b600090565b62001108620010f9565b62001115818484620010ce565b505050565b5b818110156200113d5762001131600082620010fe565b6001810190506200111b565b5050565b601f8211156200118c57620011568162001000565b620011618462001015565b8101602085101562001171578190505b62001189620011808562001015565b8301826200111a565b50505b505050565b600082821c905092915050565b6000620011b16000198460080262001191565b1980831691505092915050565b6000620011cc83836200119e565b9150826002028217905092915050565b620011e78262000f91565b67ffffffffffffffff81111562001203576200120262000da8565b5b6200120f825462000fcb565b6200121c82828562001141565b600060209050601f8311600181146200125457600084156200123f578287015190505b6200124b8582620011be565b865550620012bb565b601f198416620012648662001000565b60005b828110156200128e5784890151825560018201915060208501945060208101905062001267565b86831015620012ae5784890151620012aa601f8916826200119e565b8355505b6001600288020188555050505b505050505050565b6000819050919050565b620012d881620012c3565b82525050565b620012e98162001088565b82525050565b600073ffffffffffffffffffffffffffffffffffffffff82169050919050565b60006200131c82620012ef565b9050919050565b6200132e816200130f565b82525050565b600060a0820190506200134b6000830188620012cd565b6200135a6020830187620012cd565b620013696040830186620012cd565b620013786060830185620012de565b62001387608083018462001323565b9695505050505050565b600082825260208201905092915050565b6000620013af8262000f91565b620013bb818562001391565b9350620013cd81856020860162000e62565b620013d88162000d97565b840191505092915050565b60006020820190508181036000830152620013ff8184620013a2565b905092915050565b600081519050919050565b6000819050602082019050919050565b6000620014308251620012c3565b80915050919050565b6000620014468262001407565b82620014528462001412565b90506200145f8162001422565b92506020821015620014a2576200149d7fffffffffffffffffffffffffffffffffffffffffffffffffffffffffffffffff8360200360080262001025565b831692505b5050919050565b7f4552433230566f7465733a20746f74616c20737570706c79207269736b73206f60008201527f766572666c6f77696e6720766f74657300000000000000000000000000000000602082015250565b60006200150760308362001391565b91506200151482620014a9565b604082019050919050565b600060208201905081810360008301526200153a81620014f8565b9050919050565b7f45524332303a206d696e7420746f20746865207a65726f206164647265737300600082015250565b600062001579601f8362001391565b9150620015868262001541565b602082019050919050565b60006020820190508181036000830152620015ac816200156a565b9050919050565b7f4e487b7100000000000000000000000000000000000000000000000000000000600052601160045260246000fd5b6000620015ef8262001088565b9150620015fc8362001088565b9250828201905080821115620016175762001616620015b3565b5b92915050565b6000602082019050620016346000830184620012de565b92915050565b7f53616665436173743a2076616c756520646f65736e27742066697420696e203260008201527f3234206269747300000000000000000000000000000000000000000000000000602082015250565b60006200169860278362001391565b9150620016a5826200163a565b604082019050919050565b60006020820190508181036000830152620016cb8162001689565b9050919050565b7f53616665436173743a2076616c756520646f65736e27742066697420696e203360008201527f3220626974730000000000000000000000000000000000000000000000000000602082015250565b60006200173060268362001391565b91506200173d82620016d2565b604082019050919050565b60006020820190508181036000830152620017638162001721565b9050919050565b7f53616665436173743a2076616c756520646f65736e27742066697420696e203460008201527f3820626974730000000000000000000000000000000000000000000000000000602082015250565b6000620017c860268362001391565b9150620017d5826200176a565b604082019050919050565b60006020820190508181036000830152620017fb81620017b9565b9050919050565b6000604082019050620018196000830185620012de565b620018286020830184620012de565b9392505050565b60006200183c8262001088565b9150620018498362001088565b9250828203905081811115620018645762001863620015b3565b5b92915050565b60805160a05160c05160e051610100516101205161014051614399620018c56000396000610afc01526000610ac801526000611eb801526000611e97015260006117ed015260006118430152600061186c01526143996000f3fe608060405234801561001057600080fd5b50600436106101da5760003560e01c8063715018a6116101045780639ab24eb0116100a2578063d505accf11610071578063d505accf146105af578063dd62ed3e146105cb578063f1127ed8146105fb578063f2fde38b1461062b576101da565b80639ab24eb014610503578063a457c2d714610533578063a9059cbb14610563578063c3cda52014610593576101da565b80638da5cb5b116100de5780638da5cb5b146104795780638e539e8c1461049757806391ddadf4146104c757806395d89b41146104e5576101da565b8063715018a61461041b5780637ecebe001461042557806384b0196e14610455576101da565b8063395093511161017c578063587cde1e1161014b578063587cde1e1461036f5780635c19a95c1461039f5780636fcfff45146103bb57806370a08231146103eb576101da565b806339509351146102d55780633a46b1a81461030557806340c10f19146103355780634bf5d7e914610351576101da565b806323b872dd116101b857806323b872dd1461024b578063313ce5671461027b57806332cb6b0c146102995780633644e515146102b7576101da565b806306fdde03146101df578063095ea7b3146101fd57806318160ddd1461022d575b600080fd5b6101e7610647565b6040516101f49190612cdd565b60405180910390f35b61021760048036038101906102129190612d98565b6106d9565b6040516102249190612df3565b60405180910390f35b6102356106fc565b6040516102429190612e1d565b60405180910390f35b61026560048036038101906102609190612e38565b610706565b6040516102729190612df3565b60405180910390f35b610283610735565b6040516102909190612ea7565b60405180910390f35b6102a161073e565b6040516102ae9190612e1d565b60405180910390f35b6102bf61074c565b6040516102cc9190612edb565b60405180910390f35b6102ef60048036038101906102ea9190612d98565b61075b565b6040516102fc9190612df3565b60405180910390f35b61031f600480360381019061031a9190612d98565b610792565b60405161032c9190612e1d565b60405180910390f35b61034f600480360381019061034a9190612d98565b610835565b005b6103596108aa565b6040516103669190612cdd565b60405180910390f35b61038960048036038101906103849190612ef6565b610938565b6040516103969190612f32565b60405180910390f35b6103b960048036038101906103b49190612ef6565b6109a1565b005b6103d560048036038101906103d09190612ef6565b6109b5565b6040516103e29190612f6c565b60405180910390f35b61040560048036038101906104009190612ef6565b610a09565b6040516104129190612e1d565b60405180910390f35b610423610a51565b005b61043f600480360381019061043a9190612ef6565b610a65565b60405161044c9190612e1d565b60405180910390f35b61045d610ab5565b6040516104709796959493929190613080565b60405180910390f35b610481610bb7565b60405161048e9190612f32565b60405180910390f35b6104b160048036038101906104ac9190613104565b610be1565b6040516104be9190612e1d565b60405180910390f35b6104cf610c46565b6040516104dc9190613152565b60405180910390f35b6104ed610c56565b6040516104fa9190612cdd565b60405180910390f35b61051d60048036038101906105189190612ef6565b610ce8565b60405161052a9190612e1d565b60405180910390f35b61054d60048036038101906105489190612d98565b610df0565b60405161055a9190612df3565b60405180910390f35b61057d60048036038101906105789190612d98565b610e67565b60405161058a9190612df3565b60405180910390f35b6105ad60048036038101906105a891906131c5565b610e8a565b005b6105c960048036038101906105c49190613252565b610f8e565b005b6105e560048036038101906105e091906132f4565b6110d0565b6040516105f29190612e1d565b60405180910390f35b61061560048036038101906106109190613360565b611157565b6040516106229190613415565b60405180910390f35b61064560048036038101906106409190612ef6565b611267565b005b6060600380546106569061345f565b80601f01602080910402602001604051908101604052809291908181526020018280546106829061345f565b80156106cf5780601f106106a4576101008083540402835291602001916106cf565b820191906000526020600020905b8154815290600101906020018083116106b257829003601f168201915b5050505050905090565b6000806106e4611316565b90506106f181858561131e565b600191505092915050565b6000600254905090565b600080610711611316565b905061071e8582856114e7565b610729858585611573565b60019150509392505050565b60006012905090565b69d3c21bcecceda100000081565b60006107566117e9565b905090565b600080610766611316565b905061078781858561077885896110d0565b61078291906134bf565b61131e565b600191505092915050565b600061079c610c46565b65ffffffffffff1682106107e5576040517f08c379a00000000000000000000000000000000000000000000000000000000081526004016107dc9061353f565b60405180910390fd5b61082d600a60008573ffffffffffffffffffffffffffffffffffffffff1673ffffffffffffffffffffffffffffffffffffffff168152602001908152602001600020836118a0565b905092915050565b61083d6119e8565b69d3c21bcecceda1000000816108516106fc565b61085b91906134bf565b111561089c576040517f08c379a0000000000000000000000000000000000000000000000000000000008152600401610893906135ab565b60405180910390fd5b6108a68282611a66565b5050565b6060436108b5610c46565b65ffffffffffff16146108fd576040517f08c379a00000000000000000000000000000000000000000000000000000000081526004016108f490613617565b60405180910390fd5b6040518060400160405280601d81526020017f6d6f64653d626c6f636b6e756d6265722666726f6d3d64656661756c74000000815250905090565b6000600960008373ffffffffffffffffffffffffffffffffffffffff1673ffffffffffffffffffffffffffffffffffffffff16815260200190815260200160002060009054906101000a900473ffffffffffffffffffffffffffffffffffffffff169050919050565b6109b26109ac611316565b82611a74565b50565b6000610a02600a60008473ffffffffffffffffffffffffffffffffffffffff1673ffffffffffffffffffffffffffffffffffffffff16815260200190815260200160002080549050611b8e565b9050919050565b60008060008373ffffffffffffffffffffffffffffffffffffffff1673ffffffffffffffffffffffffffffffffffffffff168152602001908152602001600020549050919050565b610a596119e8565b610a636000611be1565b565b6000610aae600760008473ffffffffffffffffffffffffffffffffffffffff1673ffffffffffffffffffffffffffffffffffffffff168152602001908152602001600020611ca7565b9050919050565b600060608060008060006060610af560057f0000000000000000000000000000000000000000000000000000000000000000611cb590919063ffffffff16565b610b2960067f0000000000000000000000000000000000000000000000000000000000000000611cb590919063ffffffff16565b46306000801b600067ffffffffffffffff811115610b4a57610b49613637565b5b604051908082528060200260200182016040528015610b785781602001602082028036833780820191505090505b507f0f00000000000000000000000000000000000000000000000000000000000000959493929190965096509650965096509650965090919293949596565b6000600c60009054906101000a900473ffffffffffffffffffffffffffffffffffffffff16905090565b6000610beb610c46565b65ffffffffffff168210610c34576040517f08c379a0000000000000000000000000000000000000000000000000000000008152600401610c2b9061353f565b60405180910390fd5b610c3f600b836118a0565b9050919050565b6000610c5143611d65565b905090565b606060048054610c659061345f565b80601f0160208091040260200160405190810160405280929190818152602001828054610c919061345f565b8015610cde5780601f10610cb357610100808354040283529160200191610cde565b820191906000526020600020905b815481529060010190602001808311610cc157829003601f168201915b5050505050905090565b600080600a60008473ffffffffffffffffffffffffffffffffffffffff1673ffffffffffffffffffffffffffffffffffffffff16815260200190815260200160002080549050905060008114610dc757600a60008473ffffffffffffffffffffffffffffffffffffffff1673ffffffffffffffffffffffffffffffffffffffff1681526020019081526020016000206001820381548110610d8c57610d8b613666565b5b9060005260206000200160000160049054906101000a90047bffffffffffffffffffffffffffffffffffffffffffffffffffffffff16610dca565b60005b7bffffffffffffffffffffffffffffffffffffffffffffffffffffffff16915050919050565b600080610dfb611316565b90506000610e0982866110d0565b905083811015610e4e576040517f08c379a0000000000000000000000000000000000000000000000000000000008152600401610e4590613707565b60405180910390fd5b610e5b828686840361131e565b60019250505092915050565b600080610e72611316565b9050610e7f818585611573565b600191505092915050565b83421115610ecd576040517f08c379a0000000000000000000000000000000000000000000000000000000008152600401610ec490613773565b60405180910390fd5b6000610f2f610f277fe48329057bfd03d55e49b547132e39cffd9c1820ad7b9d4c5307691425d15adf898989604051602001610f0c9493929190613793565b60405160208183030381529060405280519060200120611dba565b858585611dd4565b9050610f3a81611dff565b8614610f7b576040517f08c379a0000000000000000000000000000000000000000000000000000000008152600401610f7290613824565b60405180910390fd5b610f858188611a74565b50505050505050565b83421115610fd1576040517f08c379a0000000000000000000000000000000000000000000000000000000008152600401610fc890613890565b60405180910390fd5b60007f6e71edae12b1b97f4d1f60370fef10105fa2faae0126114a169c64845d6126c98888886110008c611dff565b89604051602001611016969594939291906138b0565b604051602081830303815290604052805190602001209050600061103982611dba565b9050600061104982878787611dd4565b90508973ffffffffffffffffffffffffffffffffffffffff168173ffffffffffffffffffffffffffffffffffffffff16146110b9576040517f08c379a00000000000000000000000000000000000000000000000000000000081526004016110b09061395d565b60405180910390fd5b6110c48a8a8a61131e565b50505050505050505050565b6000600160008473ffffffffffffffffffffffffffffffffffffffff1673ffffffffffffffffffffffffffffffffffffffff16815260200190815260200160002060008373ffffffffffffffffffffffffffffffffffffffff1673ffffffffffffffffffffffffffffffffffffffff16815260200190815260200160002054905092915050565b61115f612c0f565b600a60008473ffffffffffffffffffffffffffffffffffffffff1673ffffffffffffffffffffffffffffffffffffffff1681526020019081526020016000208263ffffffff16815481106111b6576111b5613666565b5b906000526020600020016040518060400160405290816000820160009054906101000a900463ffffffff1663ffffffff1663ffffffff1681526020016000820160049054906101000a90047bffffffffffffffffffffffffffffffffffffffffffffffffffffffff167bffffffffffffffffffffffffffffffffffffffffffffffffffffffff167bffffffffffffffffffffffffffffffffffffffffffffffffffffffff1681525050905092915050565b61126f6119e8565b600073ffffffffffffffffffffffffffffffffffffffff168173ffffffffffffffffffffffffffffffffffffffff16036112de576040517f08c379a00000000000000000000000000000000000000000000000000000000081526004016112d5906139ef565b60405180910390fd5b6112e781611be1565b50565b600081836112f891906134bf565b905092915050565b6000818361130e9190613a0f565b905092915050565b600033905090565b600073ffffffffffffffffffffffffffffffffffffffff168373ffffffffffffffffffffffffffffffffffffffff160361138d576040517f08c379a000000000000000000000000000000000000000000000000000000000815260040161138490613ab5565b60405180910390fd5b600073ffffffffffffffffffffffffffffffffffffffff168273ffffffffffffffffffffffffffffffffffffffff16036113fc576040517f08c379a00000000000000000000000000000000000000000000000000000000081526004016113f390613b47565b60405180910390fd5b80600160008573ffffffffffffffffffffffffffffffffffffffff1673ffffffffffffffffffffffffffffffffffffffff16815260200190815260200160002060008473ffffffffffffffffffffffffffffffffffffffff1673ffffffffffffffffffffffffffffffffffffffff168152602001908152602001600020819055508173ffffffffffffffffffffffffffffffffffffffff168373ffffffffffffffffffffffffffffffffffffffff167f8c5be1e5ebec7d5bd14f71427d1e84f3dd0314c0f7b2291e5b200ac8c7c3b925836040516114da9190612e1d565b60405180910390a3505050565b60006114f384846110d0565b90507fffffffffffffffffffffffffffffffffffffffffffffffffffffffffffffffff811461156d578181101561155f576040517f08c379a000000000000000000000000000000000000000000000000000000000815260040161155690613bb3565b60405180910390fd5b61156c848484840361131e565b5b50505050565b600073ffffffffffffffffffffffffffffffffffffffff168373ffffffffffffffffffffffffffffffffffffffff16036115e2576040517f08c379a00000000000000000000000000000000000000000000000000000000081526004016115d990613c45565b60405180910390fd5b600073ffffffffffffffffffffffffffffffffffffffff168273ffffffffffffffffffffffffffffffffffffffff1603611651576040517f08c379a000000000000000000000000000000000000000000000000000000000815260040161164890613cd7565b60405180910390fd5b61165c838383611e5d565b60008060008573ffffffffffffffffffffffffffffffffffffffff1673ffffffffffffffffffffffffffffffffffffffff168152602001908152602001600020549050818110156116e2576040517f08c379a00000000000000000000000000000000000000000000000000000000081526004016116d990613d69565b60405180910390fd5b8181036000808673ffffffffffffffffffffffffffffffffffffffff1673ffffffffffffffffffffffffffffffffffffffff16815260200190815260200160002081905550816000808573ffffffffffffffffffffffffffffffffffffffff1673ffffffffffffffffffffffffffffffffffffffff168152602001908152602001600020600082825401925050819055508273ffffffffffffffffffffffffffffffffffffffff168473ffffffffffffffffffffffffffffffffffffffff167fddf252ad1be2c89b69c2b068fc378daa952ba7f163c4a11628f55a4df523b3ef846040516117d09190612e1d565b60405180910390a36117e3848484611e62565b50505050565b60007f000000000000000000000000000000000000000000000000000000000000000073ffffffffffffffffffffffffffffffffffffffff163073ffffffffffffffffffffffffffffffffffffffff1614801561186557507f000000000000000000000000000000000000000000000000000000000000000046145b15611892577f0000000000000000000000000000000000000000000000000000000000000000905061189d565b61189a611e72565b90505b90565b6000808380549050905060008082905060058311156119165760006118c484611f08565b846118cf9190613a0f565b9050856118dc8883612001565b60000160009054906101000a900463ffffffff1663ffffffff16111561190457809150611914565b60018161191191906134bf565b92505b505b5b8082101561197657600061192b8383612016565b9050856119388883612001565b60000160009054906101000a900463ffffffff1663ffffffff16111561196057809150611970565b60018161196d91906134bf565b92505b50611917565b600081146119bc5761198b8660018303612001565b60000160049054906101000a90047bffffffffffffffffffffffffffffffffffffffffffffffffffffffff166119bf565b60005b7bffffffffffffffffffffffffffffffffffffffffffffffffffffffff16935050505092915050565b6119f0611316565b73ffffffffffffffffffffffffffffffffffffffff16611a0e610bb7565b73ffffffffffffffffffffffffffffffffffffffff1614611a64576040517f08c379a0000000000000000000000000000000000000000000000000000000008152600401611a5b90613dd5565b60405180910390fd5b565b611a70828261203c565b5050565b6000611a7f83610938565b90506000611a8c84610a09565b905082600960008673ffffffffffffffffffffffffffffffffffffffff1673ffffffffffffffffffffffffffffffffffffffff16815260200190815260200160002060006101000a81548173ffffffffffffffffffffffffffffffffffffffff021916908373ffffffffffffffffffffffffffffffffffffffff1602179055508273ffffffffffffffffffffffffffffffffffffffff168273ffffffffffffffffffffffffffffffffffffffff168573ffffffffffffffffffffffffffffffffffffffff167f3134e8a2e6d97e929a7e54011ea5485d7d196dd5f0ba4d4ef95803e8e3fc257f60405160405180910390a4611b888284836120c9565b50505050565b600063ffffffff8016821115611bd9576040517f08c379a0000000000000000000000000000000000000000000000000000000008152600401611bd090613e67565b60405180910390fd5b819050919050565b6000600c60009054906101000a900473ffffffffffffffffffffffffffffffffffffffff16905081600c60006101000a81548173ffffffffffffffffffffffffffffffffffffffff021916908373ffffffffffffffffffffffffffffffffffffffff1602179055508173ffffffffffffffffffffffffffffffffffffffff168173ffffffffffffffffffffffffffffffffffffffff167f8be0079c531659141344cd1fd0a4f28419497f9722a3daafe3b4186f6b6457e060405160405180910390a35050565b600081600001549050919050565b606060ff60001b8314611cd257611ccb836122c2565b9050611d5f565b818054611cde9061345f565b80601f0160208091040260200160405190810160405280929190818152602001828054611d0a9061345f565b8015611d575780601f10611d2c57610100808354040283529160200191611d57565b820191906000526020600020905b815481529060010190602001808311611d3a57829003601f168201915b505050505090505b92915050565b600065ffffffffffff8016821115611db2576040517f08c379a0000000000000000000000000000000000000000000000000000000008152600401611da990613ef9565b60405180910390fd5b819050919050565b6000611dcd611dc76117e9565b83612336565b9050919050565b6000806000611de587878787612377565b91509150611df281612459565b8192505050949350505050565b600080600760008473ffffffffffffffffffffffffffffffffffffffff1673ffffffffffffffffffffffffffffffffffffffff1681526020019081526020016000209050611e4c81611ca7565b9150611e57816125bf565b50919050565b505050565b611e6d8383836125d5565b505050565b60007f8b73c3c69bb8fe3d512ecc4cf759cc79239f7b179b0ffacaa9a75d522b39400f7f00000000000000000000000000000000000000000000000000000000000000007f00000000000000000000000000000000000000000000000000000000000000004630604051602001611eed959493929190613f19565b60405160208183030381529060405280519060200120905090565b6000808203611f1a5760009050611ffc565b60006001611f2784612600565b901c6001901b90506001818481611f4157611f40613f6c565b5b048201901c90506001818481611f5a57611f59613f6c565b5b048201901c90506001818481611f7357611f72613f6c565b5b048201901c90506001818481611f8c57611f8b613f6c565b5b048201901c90506001818481611fa557611fa4613f6c565b5b048201901c90506001818481611fbe57611fbd613f6c565b5b048201901c90506001818481611fd757611fd6613f6c565b5b048201901c9050611ff881828581611ff257611ff1613f6c565b5b046126e1565b9150505b919050565b60008260005281602060002001905092915050565b600060028284186120279190613f9b565b82841661203491906134bf565b905092915050565b61204682826126fa565b61204e612850565b7bffffffffffffffffffffffffffffffffffffffffffffffffffffffff166120746106fc565b11156120b5576040517f08c379a00000000000000000000000000000000000000000000000000000000081526004016120ac9061403e565b60405180910390fd5b6120c3600b6112ea83612874565b50505050565b8173ffffffffffffffffffffffffffffffffffffffff168373ffffffffffffffffffffffffffffffffffffffff16141580156121055750600081115b156122bd57600073ffffffffffffffffffffffffffffffffffffffff168373ffffffffffffffffffffffffffffffffffffffff16146121e35760008061218c600a60008773ffffffffffffffffffffffffffffffffffffffff1673ffffffffffffffffffffffffffffffffffffffff16815260200190815260200160002061130085612874565b915091508473ffffffffffffffffffffffffffffffffffffffff167fdec2bacdd2f05b59de34da9b523dff8be42e5e38e818c82fdb0bae774387a72483836040516121d892919061405e565b60405180910390a250505b600073ffffffffffffffffffffffffffffffffffffffff168273ffffffffffffffffffffffffffffffffffffffff16146122bc57600080612265600a60008673ffffffffffffffffffffffffffffffffffffffff1673ffffffffffffffffffffffffffffffffffffffff1681526020019081526020016000206112ea85612874565b915091508373ffffffffffffffffffffffffffffffffffffffff167fdec2bacdd2f05b59de34da9b523dff8be42e5e38e818c82fdb0bae774387a72483836040516122b192919061405e565b60405180910390a250505b5b505050565b606060006122cf83612b4f565b90506000602067ffffffffffffffff8111156122ee576122ed613637565b5b6040519080825280601f01601f1916602001820160405280156123205781602001600182028036833780820191505090505b5090508181528360208201528092505050919050565b60006040517f190100000000000000000000000000000000000000000000000000000000000081528360028201528260228201526042812091505092915050565b6000807f7fffffffffffffffffffffffffffffff5d576e7357a4501ddfe92f46681b20a08360001c11156123b2576000600391509150612450565b6000600187878787604051600081526020016040526040516123d79493929190614087565b6020604051602081039080840390855afa1580156123f9573d6000803e3d6000fd5b505050602060405103519050600073ffffffffffffffffffffffffffffffffffffffff168173ffffffffffffffffffffffffffffffffffffffff160361244757600060019250925050612450565b80600092509250505b94509492505050565b6000600481111561246d5761246c6140cc565b5b8160048111156124805761247f6140cc565b5b03156125bc576001600481111561249a576124996140cc565b5b8160048111156124ad576124ac6140cc565b5b036124ed576040517f08c379a00000000000000000000000000000000000000000000000000000000081526004016124e490614147565b60405180910390fd5b60026004811115612501576125006140cc565b5b816004811115612514576125136140cc565b5b03612554576040517f08c379a000000000000000000000000000000000000000000000000000000000815260040161254b906141b3565b60405180910390fd5b60036004811115612568576125676140cc565b5b81600481111561257b5761257a6140cc565b5b036125bb576040517f08c379a00000000000000000000000000000000000000000000000000000000081526004016125b290614245565b60405180910390fd5b5b50565b6001816000016000828254019250508190555050565b6125e0838383612b9f565b6125fb6125ec84610938565b6125f584610938565b836120c9565b505050565b600080600090506000608084901c111561262257608083901c92506080810190505b6000604084901c111561263d57604083901c92506040810190505b6000602084901c111561265857602083901c92506020810190505b6000601084901c111561267357601083901c92506010810190505b6000600884901c111561268e57600883901c92506008810190505b6000600484901c11156126a957600483901c92506004810190505b6000600284901c11156126c457600283901c92506002810190505b6000600184901c11156126d8576001810190505b80915050919050565b60008183106126f057816126f2565b825b905092915050565b600073ffffffffffffffffffffffffffffffffffffffff168273ffffffffffffffffffffffffffffffffffffffff1603612769576040517f08c379a0000000000000000000000000000000000000000000000000000000008152600401612760906142b1565b60405180910390fd5b61277560008383611e5d565b806002600082825461278791906134bf565b92505081905550806000808473ffffffffffffffffffffffffffffffffffffffff1673ffffffffffffffffffffffffffffffffffffffff168152602001908152602001600020600082825401925050819055508173ffffffffffffffffffffffffffffffffffffffff16600073ffffffffffffffffffffffffffffffffffffffff167fddf252ad1be2c89b69c2b068fc378daa952ba7f163c4a11628f55a4df523b3ef836040516128389190612e1d565b60405180910390a361284c60008383611e62565b5050565b60007bffffffffffffffffffffffffffffffffffffffffffffffffffffffff905090565b600080600085805490509050600080821461293a576128968760018403612001565b6040518060400160405290816000820160009054906101000a900463ffffffff1663ffffffff1663ffffffff1681526020016000820160049054906101000a90047bffffffffffffffffffffffffffffffffffffffffffffffffffffffff167bffffffffffffffffffffffffffffffffffffffffffffffffffffffff167bffffffffffffffffffffffffffffffffffffffffffffffffffffffff1681525050612976565b6040518060400160405280600063ffffffff16815260200160007bffffffffffffffffffffffffffffffffffffffffffffffffffffffff168152505b905080602001517bffffffffffffffffffffffffffffffffffffffffffffffffffffffff1693506129ab84868863ffffffff16565b92506000821180156129d557506129c0610c46565b65ffffffffffff16816000015163ffffffff16145b15612a46576129e383612ba4565b6129f08860018503612001565b60000160046101000a8154817bffffffffffffffffffffffffffffffffffffffffffffffffffffffff02191690837bffffffffffffffffffffffffffffffffffffffffffffffffffffffff160217905550612b45565b866040518060400160405280612a6a612a5d610c46565b65ffffffffffff16611b8e565b63ffffffff168152602001612a7e86612ba4565b7bffffffffffffffffffffffffffffffffffffffffffffffffffffffff168152509080600181540180825580915050600190039060005260206000200160009091909190915060008201518160000160006101000a81548163ffffffff021916908363ffffffff16021790555060208201518160000160046101000a8154817bffffffffffffffffffffffffffffffffffffffffffffffffffffffff02191690837bffffffffffffffffffffffffffffffffffffffffffffffffffffffff16021790555050505b5050935093915050565b60008060ff8360001c169050601f811115612b96576040517fb3512b0c00000000000000000000000000000000000000000000000000000000815260040160405180910390fd5b80915050919050565b505050565b60007bffffffffffffffffffffffffffffffffffffffffffffffffffffffff8016821115612c07576040517f08c379a0000000000000000000000000000000000000000000000000000000008152600401612bfe90614343565b60405180910390fd5b819050919050565b6040518060400160405280600063ffffffff16815260200160007bffffffffffffffffffffffffffffffffffffffffffffffffffffffff1681525090565b600081519050919050565b600082825260208201905092915050565b60005b83811015612c87578082015181840152602081019050612c6c565b60008484015250505050565b6000601f19601f8301169050919050565b6000612caf82612c4d565b612cb98185612c58565b9350612cc9818560208601612c69565b612cd281612c93565b840191505092915050565b60006020820190508181036000830152612cf78184612ca4565b905092915050565b600080fd5b600073ffffffffffffffffffffffffffffffffffffffff82169050919050565b6000612d2f82612d04565b9050919050565b612d3f81612d24565b8114612d4a57600080fd5b50565b600081359050612d5c81612d36565b92915050565b6000819050919050565b612d7581612d62565b8114612d8057600080fd5b50565b600081359050612d9281612d6c565b92915050565b60008060408385031215612daf57612dae612cff565b5b6000612dbd85828601612d4d565b9250506020612dce85828601612d83565b9150509250929050565b60008115159050919050565b612ded81612dd8565b82525050565b6000602082019050612e086000830184612de4565b92915050565b612e1781612d62565b82525050565b6000602082019050612e326000830184612e0e565b92915050565b600080600060608486031215612e5157612e50612cff565b5b6000612e5f86828701612d4d565b9350506020612e7086828701612d4d565b9250506040612e8186828701612d83565b9150509250925092565b600060ff82169050919050565b612ea181612e8b565b82525050565b6000602082019050612ebc6000830184612e98565b92915050565b6000819050919050565b612ed581612ec2565b82525050565b6000602082019050612ef06000830184612ecc565b92915050565b600060208284031215612f0c57612f0b612cff565b5b6000612f1a84828501612d4d565b91505092915050565b612f2c81612d24565b82525050565b6000602082019050612f476000830184612f23565b92915050565b600063ffffffff82169050919050565b612f6681612f4d565b82525050565b6000602082019050612f816000830184612f5d565b92915050565b60007fff0000000000000000000000000000000000000000000000000000000000000082169050919050565b612fbc81612f87565b82525050565b600081519050919050565b600082825260208201905092915050565b6000819050602082019050919050565b612ff781612d62565b82525050565b60006130098383612fee565b60208301905092915050565b6000602082019050919050565b600061302d82612fc2565b6130378185612fcd565b935061304283612fde565b8060005b8381101561307357815161305a8882612ffd565b975061306583613015565b925050600181019050613046565b5085935050505092915050565b600060e082019050613095600083018a612fb3565b81810360208301526130a78189612ca4565b905081810360408301526130bb8188612ca4565b90506130ca6060830187612e0e565b6130d76080830186612f23565b6130e460a0830185612ecc565b81810360c08301526130f68184613022565b905098975050505050505050565b60006020828403121561311a57613119612cff565b5b600061312884828501612d83565b91505092915050565b600065ffffffffffff82169050919050565b61314c81613131565b82525050565b60006020820190506131676000830184613143565b92915050565b61317681612e8b565b811461318157600080fd5b50565b6000813590506131938161316d565b92915050565b6131a281612ec2565b81146131ad57600080fd5b50565b6000813590506131bf81613199565b92915050565b60008060008060008060c087890312156131e2576131e1612cff565b5b60006131f089828a01612d4d565b965050602061320189828a01612d83565b955050604061321289828a01612d83565b945050606061322389828a01613184565b935050608061323489828a016131b0565b92505060a061324589828a016131b0565b9150509295509295509295565b600080600080600080600060e0888a03121561327157613270612cff565b5b600061327f8a828b01612d4d565b97505060206132908a828b01612d4d565b96505060406132a18a828b01612d83565b95505060606132b28a828b01612d83565b94505060806132c38a828b01613184565b93505060a06132d48a828b016131b0565b92505060c06132e58a828b016131b0565b91505092959891949750929550565b6000806040838503121561330b5761330a612cff565b5b600061331985828601612d4d565b925050602061332a85828601612d4d565b9150509250929050565b61333d81612f4d565b811461334857600080fd5b50565b60008135905061335a81613334565b92915050565b6000806040838503121561337757613376612cff565b5b600061338585828601612d4d565b92505060206133968582860161334b565b9150509250929050565b6133a981612f4d565b82525050565b60007bffffffffffffffffffffffffffffffffffffffffffffffffffffffff82169050919050565b6133e0816133af565b82525050565b6040820160008201516133fc60008501826133a0565b50602082015161340f60208501826133d7565b50505050565b600060408201905061342a60008301846133e6565b92915050565b7f4e487b7100000000000000000000000000000000000000000000000000000000600052602260045260246000fd5b6000600282049050600182168061347757607f821691505b60208210810361348a57613489613430565b5b50919050565b7f4e487b7100000000000000000000000000000000000000000000000000000000600052601160045260246000fd5b60006134ca82612d62565b91506134d583612d62565b92508282019050808211156134ed576134ec613490565b5b92915050565b7f4552433230566f7465733a20667574757265206c6f6f6b757000000000000000600082015250565b6000613529601983612c58565b9150613534826134f3565b602082019050919050565b600060208201905081810360008301526135588161351c565b9050919050565b7f45786365656473206d6178696d756d20746f6b656e20737570706c7900000000600082015250565b6000613595601c83612c58565b91506135a08261355f565b602082019050919050565b600060208201905081810360008301526135c481613588565b9050919050565b7f4552433230566f7465733a2062726f6b656e20636c6f636b206d6f6465000000600082015250565b6000613601601d83612c58565b915061360c826135cb565b602082019050919050565b60006020820190508181036000830152613630816135f4565b9050919050565b7f4e487b7100000000000000000000000000000000000000000000000000000000600052604160045260246000fd5b7f4e487b7100000000000000000000000000000000000000000000000000000000600052603260045260246000fd5b7f45524332303a2064656372656173656420616c6c6f77616e63652062656c6f7760008201527f207a65726f000000000000000000000000000000000000000000000000000000602082015250565b60006136f1602583612c58565b91506136fc82613695565b604082019050919050565b60006020820190508181036000830152613720816136e4565b9050919050565b7f4552433230566f7465733a207369676e61747572652065787069726564000000600082015250565b600061375d601d83612c58565b915061376882613727565b602082019050919050565b6000602082019050818103600083015261378c81613750565b9050919050565b60006080820190506137a86000830187612ecc565b6137b56020830186612f23565b6137c26040830185612e0e565b6137cf6060830184612e0e565b95945050505050565b7f4552433230566f7465733a20696e76616c6964206e6f6e636500000000000000600082015250565b600061380e601983612c58565b9150613819826137d8565b602082019050919050565b6000602082019050818103600083015261383d81613801565b9050919050565b7f45524332305065726d69743a206578706972656420646561646c696e65000000600082015250565b600061387a601d83612c58565b915061388582613844565b602082019050919050565b600060208201905081810360008301526138a98161386d565b9050919050565b600060c0820190506138c56000830189612ecc565b6138d26020830188612f23565b6138df6040830187612f23565b6138ec6060830186612e0e565b6138f96080830185612e0e565b61390660a0830184612e0e565b979650505050505050565b7f45524332305065726d69743a20696e76616c6964207369676e61747572650000600082015250565b6000613947601e83612c58565b915061395282613911565b602082019050919050565b600060208201905081810360008301526139768161393a565b9050919050565b7f4f776e61626c653a206e6577206f776e657220697320746865207a65726f206160008201527f6464726573730000000000000000000000000000000000000000000000000000602082015250565b60006139d9602683612c58565b91506139e48261397d565b604082019050919050565b60006020820190508181036000830152613a08816139cc565b9050919050565b6000613a1a82612d62565b9150613a2583612d62565b9250828203905081811115613a3d57613a3c613490565b5b92915050565b7f45524332303a20617070726f76652066726f6d20746865207a65726f2061646460008201527f7265737300000000000000000000000000000000000000000000000000000000602082015250565b6000613a9f602483612c58565b9150613aaa82613a43565b604082019050919050565b60006020820190508181036000830152613ace81613a92565b9050919050565b7f45524332303a20617070726f766520746f20746865207a65726f20616464726560008201527f7373000000000000000000000000000000000000000000000000000000000000602082015250565b6000613b31602283612c58565b9150613b3c82613ad5565b604082019050919050565b60006020820190508181036000830152613b6081613b24565b9050919050565b7f45524332303a20696e73756666696369656e7420616c6c6f77616e6365000000600082015250565b6000613b9d601d83612c58565b9150613ba882613b67565b602082019050919050565b60006020820190508181036000830152613bcc81613b90565b9050919050565b7f45524332303a207472616e736665722066726f6d20746865207a65726f20616460008201527f6472657373000000000000000000000000000000000000000000000000000000602082015250565b6000613c2f602583612c58565b9150613c3a82613bd3565b604082019050919050565b60006020820190508181036000830152613c5e81613c22565b9050919050565b7f45524332303a207472616e7366657220746f20746865207a65726f206164647260008201527f6573730000000000000000000000000000000000000000000000000000000000602082015250565b6000613cc1602383612c58565b9150613ccc82613c65565b604082019050919050565b60006020820190508181036000830152613cf081613cb4565b9050919050565b7f45524332303a207472616e7366657220616d6f756e742065786365656473206260008201527f616c616e63650000000000000000000000000000000000000000000000000000602082015250565b6000613d53602683612c58565b9150613d5e82613cf7565b604082019050919050565b60006020820190508181036000830152613d8281613d46565b9050919050565b7f4f776e61626c653a2063616c6c6572206973206e6f7420746865206f776e6572600082015250565b6000613dbf602083612c58565b9150613dca82613d89565b602082019050919050565b60006020820190508181036000830152613dee81613db2565b9050919050565b7f53616665436173743a2076616c756520646f65736e27742066697420696e203360008201527f3220626974730000000000000000000000000000000000000000000000000000602082015250565b6000613e51602683612c58565b9150613e5c82613df5565b604082019050919050565b60006020820190508181036000830152613e8081613e44565b9050919050565b7f53616665436173743a2076616c756520646f65736e27742066697420696e203460008201527f3820626974730000000000000000000000000000000000000000000000000000602082015250565b6000613ee3602683612c58565b9150613eee82613e87565b604082019050919050565b60006020820190508181036000830152613f1281613ed6565b9050919050565b600060a082019050613f2e6000830188612ecc565b613f3b6020830187612ecc565b613f486040830186612ecc565b613f556060830185612e0e565b613f626080830184612f23565b9695505050505050565b7f4e487b7100000000000000000000000000000000000000000000000000000000600052601260045260246000fd5b6000613fa682612d62565b9150613fb183612d62565b925082613fc157613fc0613f6c565b5b828204905092915050565b7f4552433230566f7465733a20746f74616c20737570706c79207269736b73206f60008201527f766572666c6f77696e6720766f74657300000000000000000000000000000000602082015250565b6000614028603083612c58565b915061403382613fcc565b604082019050919050565b600060208201905081810360008301526140578161401b565b9050919050565b60006040820190506140736000830185612e0e565b6140806020830184612e0e565b9392505050565b600060808201905061409c6000830187612ecc565b6140a96020830186612e98565b6140b66040830185612ecc565b6140c36060830184612ecc565b95945050505050565b7f4e487b7100000000000000000000000000000000000000000000000000000000600052602160045260246000fd5b7f45434453413a20696e76616c6964207369676e61747572650000000000000000600082015250565b6000614131601883612c58565b915061413c826140fb565b602082019050919050565b6000602082019050818103600083015261416081614124565b9050919050565b7f45434453413a20696e76616c6964207369676e6174757265206c656e67746800600082015250565b600061419d601f83612c58565b91506141a882614167565b602082019050919050565b600060208201905081810360008301526141cc81614190565b9050919050565b7f45434453413a20696e76616c6964207369676e6174757265202773272076616c60008201527f7565000000000000000000000000000000000000000000000000000000000000602082015250565b600061422f602283612c58565b915061423a826141d3565b604082019050919050565b6000602082019050818103600083015261425e81614222565b9050919050565b7f45524332303a206d696e7420746f20746865207a65726f206164647265737300600082015250565b600061429b601f83612c58565b91506142a682614265565b602082019050919050565b600060208201905081810360008301526142ca8161428e565b9050919050565b7f53616665436173743a2076616c756520646f65736e27742066697420696e203260008201527f3234206269747300000000000000000000000000000000000000000000000000602082015250565b600061432d602783612c58565b9150614338826142d1565b604082019050919050565b6000602082019050818103600083015261435c81614320565b905091905056fea2646970667358221220eb31c1ebcca7d4a938d5e45c05a6d33bd810b92de47decd818f597acca7ed0c164736f6c63430008140033",
  "linkReferences": {},
  "deployedLinkReferences": {}
}