{
  "_format": "hh-sol-artifact-1",
  "contractName": "DAOGovLite",
  "sourceName": "src/DAOGovLite.sol",
  "abi": [
    {
      "inputs": [
        {
          "internalType": "address",
          "name": "_governanceToken",
          "type": "address"
        }
      ],
      "stateMutability": "nonpayable",
      "type": "constructor"
    },
    {
      "anonymous": false,
      "inputs": [
        {
          "indexed": true,
          "internalType": "uint256",
          "name": "proposalId",
          "type": "uint256"
        }
      ],
      "name": "ProposalCanceled",
      "type": "event"
    },
    {
      "anonymous": false,
      "inputs": [
        {
          "indexed": true,
          "internalType": "uint256",
          "name": "proposalId",
          "type": "uint256"
        },
        {
          "indexed": true,
          "internalType": "address",
          "name": "proposer",
          "type": "address"
        },
        {
          "indexed": false,
          "internalType": "string",
          "name": "title",
          "type": "string"
        },
        {
          "indexed": false,
          "internalType": "string",
          "name": "description",
          "type": "string"
        },
        {
          "indexed": false,
          "internalType": "uint256",
          "name": "startTime",
          "type": "uint256"
        },
        {
          "indexed": false,
          "internalType": "uint256",
          "name": "endTime",
          "type": "uint256"
        }
      ],
      "name": "ProposalCreated",
      "type": "event"
    },
    {
      "anonymous": false,
      "inputs": [
        {
          "indexed": true,
          "internalType": "uint256",
          "name": "proposalId",
          "type": "uint256"
        },
        {
          "indexed": true,
          "internalType": "address",
          "name": "executor",
          "type": "address"
        }
      ],
      "name": "ProposalExecuted",
      "type": "event"
    },
    {
      "anonymous": false,
      "inputs": [
        {
          "indexed": true,
          "internalType": "uint256",
          "name": "proposalId",
          "type": "uint256"
        },
        {
          "indexed": true,
          "internalType": "address",
          "name": "voter",
          "type": "address"
        },
        {
          "indexed": false,
          "internalType": "bool",
          "name": "support",
          "type": "bool"
        },
        {
          "indexed": false,
          "internalType": "uint256",
          "name": "votes",
          "type": "uint256"
        }
      ],
      "name": "VoteCast",
      "type": "event"
    },
    {
      "inputs": [],
      "name": "PROPOSAL_THRESHOLD",
      "outputs": [
        {
          "internalType": "uint256",
          "name": "",
          "type": "uint256"
        }
      ],
      "stateMutability": "view",
      "type": "function"
    },
    {
      "inputs": [
        {
          "internalType": "uint256",
          "name": "proposalId",
          "type": "uint256"
        }
      ],
      "name": "cancelProposal",
      "outputs": [],
      "stateMutability": "nonpayable",
      "type": "function"
    },
    {
      "inputs": [
        {
          "internalType": "string",
          "name": "title",
          "type": "string"
        },
        {
          "internalType": "string",
          "name": "description",
          "type": "string"
        },
        {
          "internalType": "uint256",
          "name": "duration",
          "type": "uint256"
        }
      ],
      "name": "createProposal",
      "outputs": [
        {
          "internalType": "uint256",
          "name": "",
          "type": "uint256"
        }
      ],
      "stateMutability": "nonpayable",
      "type": "function"
    },
    {
      "inputs": [
        {
          "internalType": "uint256",
          "name": "proposalId",
          "type": "uint256"
        }
      ],
      "name": "executeProposal",
      "outputs": [],
      "stateMutability": "nonpayable",
      "type": "function"
    },
    {
      "inputs": [
        {
          "internalType": "uint256",
          "name": "proposalId",
          "type": "uint256"
        }
      ],
      "name": "getProposal",
      "outputs": [
        {
          "internalType": "address",
          "name": "proposer",
          "type": "address"
        },
        {
          "internalType": "string",
          "name": "title",
          "type": "string"
        },
        {
          "internalType": "string",
          "name": "description",
          "type": "string"
        },
        {
          "internalType": "uint256",
          "name": "startTime",
          "type": "uint256"
        },
        {
          "internalType": "uint256",
          "name": "endTime",
          "type": "uint256"
        },
        {
          "internalType": "uint256",
          "name": "forVotes",
          "type": "uint256"
        },
        {
          "internalType": "uint256",
          "name": "againstVotes",
          "type": "uint256"
        },
        {
          "internalType": "bool",
          "name": "executed",
          "type": "bool"
        },
        {
          "internalType": "bool",
          "name": "canceled",
          "type": "bool"
        }
      ],
      "stateMutability": "view",
      "type": "function"
    },
    {
      "inputs": [],
      "name": "getProposalCount",
      "outputs": [
        {
          "internalType": "uint256",
          "name": "",
          "type": "uint256"
        }
      ],
      "stateMutability": "view",
      "type": "function"
    },
    {
      "inputs": [],
      "name": "getProposals",
      "outputs": [
        {
          "internalType": "uint256[]",
          "name": "",
          "type": "uint256[]"
        }
      ],
      "stateMutability": "view",
      "type": "function"
    },
    {
      "inputs": [
        {
          "internalType": "address",
          "name": "voter",
          "type": "address"
        }
      ],
      "name": "getVotingPower",
      "outputs": [
        {
          "internalType": "uint256",
          "name": "",
          "type": "uint256"
        }
      ],
      "stateMutability": "view",
      "type": "function"
    },
    {
      "inputs": [],
      "name": "governanceToken",
      "outputs": [
        {
          "internalType": "contract ERC20Votes",
          "name": "",
          "type": "address"
        }
      ],
      "stateMutability": "view",
      "type": "function"
    },
    {
      "inputs": [
        {
          "internalType": "uint256",
          "name": "proposalId",
          "type": "uint256"
        },
        {
          "internalType": "address",
          "name": "voter",
          "type": "address"
        }
      ],
      "name": "hasVoted",
      "outputs": [
        {
          "internalType": "bool",
          "name": "",
          "type": "bool"
        }
      ],
      "stateMutability": "view",
      "type": "function"
    },
    {
      "inputs": [
        {
          "internalType": "uint256",
          "name": "proposalId",
          "type": "uint256"
        },
        {
          "internalType": "bool",
          "name": "support",
          "type": "bool"
        }
      ],
      "name": "vote",
      "outputs": [],
      "stateMutability": "nonpayable",
      "type": "function"
    }
  ],
  "bytecode": "0x60806040523480156200001157600080fd5b50604051620024f0380380620024f0833981810160405281019062000037919062000182565b600073ffffffffffffffffffffffffffffffffffffffff168173ffffffffffffffffffffffffffffffffffffffff1603620000a9576040517f08c379a0000000000000000000000000000000000000000000000000000000008152600401620000a09062000215565b60405180910390fd5b806000806101000a81548173ffffffffffffffffffffffffffffffffffffffff021916908373ffffffffffffffffffffffffffffffffffffffff160217905550620000fb60016200010260201b60201c565b5062000237565b6001816000016000828254019250508190555050565b600080fd5b600073ffffffffffffffffffffffffffffffffffffffff82169050919050565b60006200014a826200011d565b9050919050565b6200015c816200013d565b81146200016857600080fd5b50565b6000815190506200017c8162000151565b92915050565b6000602082840312156200019b576200019a62000118565b5b6000620001ab848285016200016b565b91505092915050565b600082825260208201905092915050565b7f496e76616c696420746f6b656e20616464726573730000000000000000000000600082015250565b6000620001fd601583620001b4565b91506200020a82620001c5565b602082019050919050565b600060208201905081810360008301526200023081620001ee565b9050919050565b6122a980620002476000396000f3fe608060405234801561001057600080fd5b50600436106100a95760003560e01c8063bb4d443611610071578063bb4d443614610166578063c08cc02d14610196578063c7f758a8146101b4578063c9d27afe146101ec578063e0a8f6f514610208578063f96dae0a14610224576100a9565b80630ce0ebf4146100ae5780630d61b519146100de57806343859632146100fa57806362564c481461012a578063a6c2660314610148575b600080fd5b6100c860048036038101906100c391906112bc565b610242565b6040516100d59190611360565b60405180910390f35b6100f860048036038101906100f3919061137b565b610595565b005b610114600480360381019061010f9190611406565b6107c3565b6040516101219190611461565b60405180910390f35b610132610876565b60405161013f919061153a565b60405180910390f35b6101506108ce565b60405161015d9190611360565b60405180910390f35b610180600480360381019061017b919061155c565b6108db565b60405161018d9190611360565b60405180910390f35b61019e61097f565b6040516101ab9190611360565b60405180910390f35b6101ce60048036038101906101c9919061137b565b61099c565b6040516101e399989796959493929190611628565b60405180910390f35b610206600480360381019061020191906116ef565b610ba6565b005b610222600480360381019061021d919061137b565b610f9c565b005b61022c6111af565b604051610239919061178e565b60405180910390f35b6000683635c9adc5dea0000060008054906101000a900473ffffffffffffffffffffffffffffffffffffffff1673ffffffffffffffffffffffffffffffffffffffff166370a08231336040518263ffffffff1660e01b81526004016102a791906117a9565b602060405180830381865afa1580156102c4573d6000803e3d6000fd5b505050506040513d601f19601f820116820180604052508101906102e891906117d9565b1015610329576040517f08c379a000000000000000000000000000000000000000000000000000000000815260040161032090611878565b60405180910390fd5b6000868690501161036f576040517f08c379a0000000000000000000000000000000000000000000000000000000008152600401610366906118e4565b60405180910390fd5b600084849050116103b5576040517f08c379a00000000000000000000000000000000000000000000000000000000081526004016103ac90611950565b60405180910390fd5b600082116103f8576040517f08c379a00000000000000000000000000000000000000000000000000000000081526004016103ef906119bc565b60405180910390fd5b600061040460016111d3565b90506000600260008381526020019081526020016000209050338160000160006101000a81548173ffffffffffffffffffffffffffffffffffffffff021916908373ffffffffffffffffffffffffffffffffffffffff1602179055508787826001019182610473929190611c18565b508585826002019182610487929190611c18565b50428160030181905550834261049d9190611d17565b8160040181905550600081600501819055506000816006018190555060008160070160006101000a81548160ff02191690831515021790555060008160070160016101000a81548160ff02191690831515021790555060038290806001815401808255809150506001900390600052602060002001600090919091909150553373ffffffffffffffffffffffffffffffffffffffff16827ffaa337366f7965edea73e5dda4e27a18008218bee177df73f82fc597a1f4dd088a8a8a8a8760030154886004015460405161057596959493929190611d87565b60405180910390a361058760016111e1565b819250505095945050505050565b61059e816111f7565b6105dd576040517f08c379a00000000000000000000000000000000000000000000000000000000081526004016105d490611e2a565b60405180910390fd5b6002600082815260200190815260200160002060070160009054906101000a900460ff1615610641576040517f08c379a000000000000000000000000000000000000000000000000000000000815260040161063890611e96565b60405180910390fd5b6002600082815260200190815260200160002060070160019054906101000a900460ff16156106a5576040517f08c379a000000000000000000000000000000000000000000000000000000000815260040161069c90611f02565b60405180910390fd5b600260008281526020019081526020016000206004015442116106fd576040517f08c379a00000000000000000000000000000000000000000000000000000000081526004016106f490611f6e565b60405180910390fd5b6000600260008381526020019081526020016000209050806006015481600501541161075e576040517f08c379a000000000000000000000000000000000000000000000000000000000815260040161075590611fda565b60405180910390fd5b60018160070160006101000a81548160ff0219169083151502179055503373ffffffffffffffffffffffffffffffffffffffff16827f9c85b616f29fca57a17eafe71cf9ff82ffef41766e2cf01ea7f8f7878dd3ec2460405160405180910390a35050565b60006107ce836111f7565b61080d576040517f08c379a000000000000000000000000000000000000000000000000000000000815260040161080490611e2a565b60405180910390fd5b6002600084815260200190815260200160002060080160008373ffffffffffffffffffffffffffffffffffffffff1673ffffffffffffffffffffffffffffffffffffffff16815260200190815260200160002060009054906101000a900460ff16905092915050565b606060038054806020026020016040519081016040528092919081815260200182805480156108c457602002820191906000526020600020905b8154815260200190600101908083116108b0575b5050505050905090565b683635c9adc5dea0000081565b60008060009054906101000a900473ffffffffffffffffffffffffffffffffffffffff1673ffffffffffffffffffffffffffffffffffffffff166370a08231836040518263ffffffff1660e01b815260040161093791906117a9565b602060405180830381865afa158015610954573d6000803e3d6000fd5b505050506040513d601f19601f8201168201806040525081019061097891906117d9565b9050919050565b6000600161098d60016111d3565b6109979190611ffa565b905090565b60006060806000806000806000806109b38a6111f7565b6109f2576040517f08c379a00000000000000000000000000000000000000000000000000000000081526004016109e990611e2a565b60405180910390fd5b6000600260008c815260200190815260200160002090508060000160009054906101000a900473ffffffffffffffffffffffffffffffffffffffff16816001018260020183600301548460040154856005015486600601548760070160009054906101000a900460ff168860070160019054906101000a900460ff16878054610a7a90611a45565b80601f0160208091040260200160405190810160405280929190818152602001828054610aa690611a45565b8015610af35780601f10610ac857610100808354040283529160200191610af3565b820191906000526020600020905b815481529060010190602001808311610ad657829003601f168201915b50505050509750868054610b0690611a45565b80601f0160208091040260200160405190810160405280929190818152602001828054610b3290611a45565b8015610b7f5780601f10610b5457610100808354040283529160200191610b7f565b820191906000526020600020905b815481529060010190602001808311610b6257829003601f168201915b50505050509650995099509950995099509950995099509950509193959799909294969850565b610baf826111f7565b610bee576040517f08c379a0000000000000000000000000000000000000000000000000000000008152600401610be590611e2a565b60405180910390fd5b6002600083815260200190815260200160002060080160003373ffffffffffffffffffffffffffffffffffffffff1673ffffffffffffffffffffffffffffffffffffffff16815260200190815260200160002060009054906101000a900460ff1615610c8f576040517f08c379a0000000000000000000000000000000000000000000000000000000008152600401610c869061207a565b60405180910390fd5b6002600083815260200190815260200160002060040154421115610ce8576040517f08c379a0000000000000000000000000000000000000000000000000000000008152600401610cdf906120e6565b60405180910390fd5b6002600083815260200190815260200160002060070160019054906101000a900460ff1615610d4c576040517f08c379a0000000000000000000000000000000000000000000000000000000008152600401610d4390611f02565b60405180910390fd5b6002600083815260200190815260200160002060070160009054906101000a900460ff1615610db0576040517f08c379a0000000000000000000000000000000000000000000000000000000008152600401610da790611e96565b60405180910390fd5b60008060009054906101000a900473ffffffffffffffffffffffffffffffffffffffff1673ffffffffffffffffffffffffffffffffffffffff166370a08231336040518263ffffffff1660e01b8152600401610e0c91906117a9565b602060405180830381865afa158015610e29573d6000803e3d6000fd5b505050506040513d601f19601f82011682018060405250810190610e4d91906117d9565b905060008111610e92576040517f08c379a0000000000000000000000000000000000000000000000000000000008152600401610e8990612152565b60405180910390fd5b60006002600085815260200190815260200160002090508215610ecf5781816005016000828254610ec39190611d17565b92505081905550610eeb565b81816006016000828254610ee39190611d17565b925050819055505b60018160080160003373ffffffffffffffffffffffffffffffffffffffff1673ffffffffffffffffffffffffffffffffffffffff16815260200190815260200160002060006101000a81548160ff0219169083151502179055503373ffffffffffffffffffffffffffffffffffffffff16847fcbdf6214089cba887ecbf35a0b6a734589959c9763342c756bb2a80ca2bc9f6e8585604051610f8e929190612172565b60405180910390a350505050565b610fa5816111f7565b610fe4576040517f08c379a0000000000000000000000000000000000000000000000000000000008152600401610fdb90611e2a565b60405180910390fd5b6002600082815260200190815260200160002060070160009054906101000a900460ff1615611048576040517f08c379a000000000000000000000000000000000000000000000000000000000815260040161103f90611e96565b60405180910390fd5b6002600082815260200190815260200160002060070160019054906101000a900460ff16156110ac576040517f08c379a00000000000000000000000000000000000000000000000000000000081526004016110a3906121e7565b60405180910390fd5b6002600082815260200190815260200160002060000160009054906101000a900473ffffffffffffffffffffffffffffffffffffffff1673ffffffffffffffffffffffffffffffffffffffff163373ffffffffffffffffffffffffffffffffffffffff1614611150576040517f08c379a000000000000000000000000000000000000000000000000000000000815260040161114790612253565b60405180910390fd5b60016002600083815260200190815260200160002060070160016101000a81548160ff021916908315150217905550807f789cf55be980739dad1d0699b93b58e806b51c9d96619bfa8fe0a28abaa7b30c60405160405180910390a250565b60008054906101000a900473ffffffffffffffffffffffffffffffffffffffff1681565b600081600001549050919050565b6001816000016000828254019250508190555050565b60008082118015611210575061120d60016111d3565b82105b9050919050565b600080fd5b600080fd5b600080fd5b600080fd5b600080fd5b60008083601f84011261124657611245611221565b5b8235905067ffffffffffffffff81111561126357611262611226565b5b60208301915083600182028301111561127f5761127e61122b565b5b9250929050565b6000819050919050565b61129981611286565b81146112a457600080fd5b50565b6000813590506112b681611290565b92915050565b6000806000806000606086880312156112d8576112d7611217565b5b600086013567ffffffffffffffff8111156112f6576112f561121c565b5b61130288828901611230565b9550955050602086013567ffffffffffffffff8111156113255761132461121c565b5b61133188828901611230565b93509350506040611344888289016112a7565b9150509295509295909350565b61135a81611286565b82525050565b60006020820190506113756000830184611351565b92915050565b60006020828403121561139157611390611217565b5b600061139f848285016112a7565b91505092915050565b600073ffffffffffffffffffffffffffffffffffffffff82169050919050565b60006113d3826113a8565b9050919050565b6113e3816113c8565b81146113ee57600080fd5b50565b600081359050611400816113da565b92915050565b6000806040838503121561141d5761141c611217565b5b600061142b858286016112a7565b925050602061143c858286016113f1565b9150509250929050565b60008115159050919050565b61145b81611446565b82525050565b60006020820190506114766000830184611452565b92915050565b600081519050919050565b600082825260208201905092915050565b6000819050602082019050919050565b6114b181611286565b82525050565b60006114c383836114a8565b60208301905092915050565b6000602082019050919050565b60006114e78261147c565b6114f18185611487565b93506114fc83611498565b8060005b8381101561152d57815161151488826114b7565b975061151f836114cf565b925050600181019050611500565b5085935050505092915050565b6000602082019050818103600083015261155481846114dc565b905092915050565b60006020828403121561157257611571611217565b5b6000611580848285016113f1565b91505092915050565b611592816113c8565b82525050565b600081519050919050565b600082825260208201905092915050565b60005b838110156115d25780820151818401526020810190506115b7565b60008484015250505050565b6000601f19601f8301169050919050565b60006115fa82611598565b61160481856115a3565b93506116148185602086016115b4565b61161d816115de565b840191505092915050565b60006101208201905061163e600083018c611589565b8181036020830152611650818b6115ef565b90508181036040830152611664818a6115ef565b90506116736060830189611351565b6116806080830188611351565b61168d60a0830187611351565b61169a60c0830186611351565b6116a760e0830185611452565b6116b5610100830184611452565b9a9950505050505050505050565b6116cc81611446565b81146116d757600080fd5b50565b6000813590506116e9816116c3565b92915050565b6000806040838503121561170657611705611217565b5b6000611714858286016112a7565b9250506020611725858286016116da565b9150509250929050565b6000819050919050565b600061175461174f61174a846113a8565b61172f565b6113a8565b9050919050565b600061176682611739565b9050919050565b60006117788261175b565b9050919050565b6117888161176d565b82525050565b60006020820190506117a3600083018461177f565b92915050565b60006020820190506117be6000830184611589565b92915050565b6000815190506117d381611290565b92915050565b6000602082840312156117ef576117ee611217565b5b60006117fd848285016117c4565b91505092915050565b7f496e73756666696369656e7420746f6b656e7320746f2063726561746520707260008201527f6f706f73616c0000000000000000000000000000000000000000000000000000602082015250565b60006118626026836115a3565b915061186d82611806565b604082019050919050565b6000602082019050818103600083015261189181611855565b9050919050565b7f5469746c652063616e6e6f7420626520656d7074790000000000000000000000600082015250565b60006118ce6015836115a3565b91506118d982611898565b602082019050919050565b600060208201905081810360008301526118fd816118c1565b9050919050565b7f4465736372697074696f6e2063616e6e6f7420626520656d7074790000000000600082015250565b600061193a601b836115a3565b915061194582611904565b602082019050919050565b600060208201905081810360008301526119698161192d565b9050919050565b7f4475726174696f6e206d75737420626520706f73697469766500000000000000600082015250565b60006119a66019836115a3565b91506119b182611970565b602082019050919050565b600060208201905081810360008301526119d581611999565b9050919050565b600082905092915050565b7f4e487b7100000000000000000000000000000000000000000000000000000000600052604160045260246000fd5b7f4e487b7100000000000000000000000000000000000000000000000000000000600052602260045260246000fd5b60006002820490506001821680611a5d57607f821691505b602082108103611a7057611a6f611a16565b5b50919050565b60008190508160005260206000209050919050565b60006020601f8301049050919050565b600082821b905092915050565b600060088302611ad87fffffffffffffffffffffffffffffffffffffffffffffffffffffffffffffffff82611a9b565b611ae28683611a9b565b95508019841693508086168417925050509392505050565b6000611b15611b10611b0b84611286565b61172f565b611286565b9050919050565b6000819050919050565b611b2f83611afa565b611b43611b3b82611b1c565b848454611aa8565b825550505050565b600090565b611b58611b4b565b611b63818484611b26565b505050565b5b81811015611b8757611b7c600082611b50565b600181019050611b69565b5050565b601f821115611bcc57611b9d81611a76565b611ba684611a8b565b81016020851015611bb5578190505b611bc9611bc185611a8b565b830182611b68565b50505b505050565b600082821c905092915050565b6000611bef60001984600802611bd1565b1980831691505092915050565b6000611c088383611bde565b9150826002028217905092915050565b611c2283836119dc565b67ffffffffffffffff811115611c3b57611c3a6119e7565b5b611c458254611a45565b611c50828285611b8b565b6000601f831160018114611c7f5760008415611c6d578287013590505b611c778582611bfc565b865550611cdf565b601f198416611c8d86611a76565b60005b82811015611cb557848901358255600182019150602085019450602081019050611c90565b86831015611cd25784890135611cce601f891682611bde565b8355505b6001600288020188555050505b50505050505050565b7f4e487b7100000000000000000000000000000000000000000000000000000000600052601160045260246000fd5b6000611d2282611286565b9150611d2d83611286565b9250828201905080821115611d4557611d44611ce8565b5b92915050565b82818337600083830152505050565b6000611d6683856115a3565b9350611d73838584611d4b565b611d7c836115de565b840190509392505050565b60006080820190508181036000830152611da281888a611d5a565b90508181036020830152611db7818688611d5a565b9050611dc66040830185611351565b611dd36060830184611351565b979650505050505050565b7f50726f706f73616c20646f6573206e6f74206578697374000000000000000000600082015250565b6000611e146017836115a3565b9150611e1f82611dde565b602082019050919050565b60006020820190508181036000830152611e4381611e07565b9050919050565b7f50726f706f73616c20616c726561647920657865637574656400000000000000600082015250565b6000611e806019836115a3565b9150611e8b82611e4a565b602082019050919050565b60006020820190508181036000830152611eaf81611e73565b9050919050565b7f50726f706f73616c2063616e63656c6564000000000000000000000000000000600082015250565b6000611eec6011836115a3565b9150611ef782611eb6565b602082019050919050565b60006020820190508181036000830152611f1b81611edf565b9050919050565b7f566f74696e6720706572696f64206e6f7420656e646564000000000000000000600082015250565b6000611f586017836115a3565b9150611f6382611f22565b602082019050919050565b60006020820190508181036000830152611f8781611f4b565b9050919050565b7f50726f706f73616c2072656a6563746564000000000000000000000000000000600082015250565b6000611fc46011836115a3565b9150611fcf82611f8e565b602082019050919050565b60006020820190508181036000830152611ff381611fb7565b9050919050565b600061200582611286565b915061201083611286565b925082820390508181111561202857612027611ce8565b5b92915050565b7f416c726561647920766f74656400000000000000000000000000000000000000600082015250565b6000612064600d836115a3565b915061206f8261202e565b602082019050919050565b6000602082019050818103600083015261209381612057565b9050919050565b7f566f74696e6720706572696f6420656e64656400000000000000000000000000600082015250565b60006120d06013836115a3565b91506120db8261209a565b602082019050919050565b600060208201905081810360008301526120ff816120c3565b9050919050565b7f4e6f20766f74696e6720706f7765720000000000000000000000000000000000600082015250565b600061213c600f836115a3565b915061214782612106565b602082019050919050565b6000602082019050818103600083015261216b8161212f565b9050919050565b60006040820190506121876000830185611452565b6121946020830184611351565b9392505050565b7f50726f706f73616c20616c72656164792063616e63656c656400000000000000600082015250565b60006121d16019836115a3565b91506121dc8261219b565b602082019050919050565b60006020820190508181036000830152612200816121c4565b9050919050565b7f4f6e6c792070726f706f7365722063616e2063616e63656c0000000000000000600082015250565b600061223d6018836115a3565b915061224882612207565b602082019050919050565b6000602082019050818103600083015261226c81612230565b905091905056fea264697066735822122061b7bcb1456526cfd12d92b1eb10b7decf066486d9302677f8137cd4361a9af664736f6c63430008140033",
  "linkReferences": {},
  "deployedLinkReferences": {}
}